{
  "_format": "hh-sol-artifact-1",
  "contractName": "Voting",
  "sourceName": "contracts/Voting.sol",
  "abi": [
    {
      "inputs": [],
      "stateMutability": "nonpayable",
      "type": "constructor"
    },
    {
      "anonymous": false,
      "inputs": [
        {
          "indexed": true,
          "internalType": "uint256",
          "name": "candidateId",
          "type": "uint256"
        },
        {
          "indexed": false,
          "internalType": "string",
          "name": "age",
          "type": "string"
        },
        {
          "indexed": false,
          "internalType": "string",
          "name": "name",
          "type": "string"
        },
        {
          "indexed": false,
          "internalType": "string",
          "name": "image",
          "type": "string"
        },
        {
          "indexed": false,
          "internalType": "uint256",
          "name": "voteCount",
          "type": "uint256"
        },
        {
          "indexed": false,
          "internalType": "address",
          "name": "_address",
          "type": "address"
        },
        {
          "indexed": false,
          "internalType": "string",
          "name": "_ipfs",
          "type": "string"
        }
      ],
      "name": "CandidateCreate",
      "type": "event"
    },
    {
      "anonymous": false,
      "inputs": [
        {
          "indexed": true,
          "internalType": "uint256",
          "name": "voter_voterId",
          "type": "uint256"
        },
        {
          "indexed": false,
          "internalType": "string",
          "name": "voter_name",
          "type": "string"
        },
        {
          "indexed": false,
          "internalType": "string",
          "name": "voter_image",
          "type": "string"
        },
        {
          "indexed": false,
          "internalType": "address",
          "name": "voter_address",
          "type": "address"
        },
        {
          "indexed": false,
          "internalType": "uint256",
          "name": "voter_allowed",
          "type": "uint256"
        },
        {
          "indexed": false,
          "internalType": "bool",
          "name": "voter_voted",
          "type": "bool"
        },
        {
          "indexed": false,
          "internalType": "uint256",
          "name": "voter_vote",
          "type": "uint256"
        },
        {
          "indexed": false,
          "internalType": "string",
          "name": "voter_ipfs",
          "type": "string"
        }
      ],
      "name": "VoterCreate",
      "type": "event"
    },
    {
      "inputs": [],
      "name": "_candidateId",
      "outputs": [
        {
          "internalType": "uint256",
          "name": "_value",
          "type": "uint256"
        }
      ],
      "stateMutability": "view",
      "type": "function"
    },
    {
      "inputs": [],
      "name": "_voterId",
      "outputs": [
        {
          "internalType": "uint256",
          "name": "_value",
          "type": "uint256"
        }
      ],
      "stateMutability": "view",
      "type": "function"
    },
    {
      "inputs": [
        {
          "internalType": "uint256",
          "name": "",
          "type": "uint256"
        }
      ],
      "name": "candidateAddress",
      "outputs": [
        {
          "internalType": "address",
          "name": "",
          "type": "address"
        }
      ],
      "stateMutability": "view",
      "type": "function"
    },
    {
      "inputs": [
        {
          "internalType": "address",
          "name": "",
          "type": "address"
        }
      ],
      "name": "candidates",
      "outputs": [
        {
          "internalType": "uint256",
          "name": "candidateId",
          "type": "uint256"
        },
        {
          "internalType": "string",
          "name": "age",
          "type": "string"
        },
        {
          "internalType": "string",
          "name": "name",
          "type": "string"
        },
        {
          "internalType": "string",
          "name": "image",
          "type": "string"
        },
        {
          "internalType": "uint256",
          "name": "voteCount",
          "type": "uint256"
        },
        {
          "internalType": "address",
          "name": "_address",
          "type": "address"
        },
        {
          "internalType": "string",
          "name": "_ipfs",
          "type": "string"
        }
      ],
      "stateMutability": "view",
      "type": "function"
    },
    {
      "inputs": [],
      "name": "getCandidate",
      "outputs": [
        {
          "internalType": "address[]",
          "name": "",
          "type": "address[]"
        }
      ],
      "stateMutability": "view",
      "type": "function"
    },
    {
      "inputs": [
        {
          "internalType": "address",
          "name": "_address",
          "type": "address"
        }
      ],
      "name": "getCandidateData",
      "outputs": [
        {
          "internalType": "string",
          "name": "",
          "type": "string"
        },
        {
          "internalType": "string",
          "name": "",
          "type": "string"
        },
        {
          "internalType": "uint256",
          "name": "",
          "type": "uint256"
        },
        {
          "internalType": "string",
          "name": "",
          "type": "string"
        },
        {
          "internalType": "uint256",
          "name": "",
          "type": "uint256"
        },
        {
          "internalType": "string",
          "name": "",
          "type": "string"
        },
        {
          "internalType": "address",
          "name": "",
          "type": "address"
        }
      ],
      "stateMutability": "view",
      "type": "function"
    },
    {
      "inputs": [],
      "name": "getCandidateLength",
      "outputs": [
        {
          "internalType": "uint256",
          "name": "",
          "type": "uint256"
        }
      ],
      "stateMutability": "view",
      "type": "function"
    },
    {
      "inputs": [],
      "name": "getVotedVotersList",
      "outputs": [
        {
          "internalType": "address[]",
          "name": "",
          "type": "address[]"
        }
      ],
      "stateMutability": "view",
      "type": "function"
    },
    {
      "inputs": [
        {
          "internalType": "address",
          "name": "_address",
          "type": "address"
        }
      ],
      "name": "getVoterData",
      "outputs": [
        {
          "internalType": "uint256",
          "name": "",
          "type": "uint256"
        },
        {
          "internalType": "string",
          "name": "",
          "type": "string"
        },
        {
          "internalType": "string",
          "name": "",
          "type": "string"
        },
        {
          "internalType": "address",
          "name": "",
          "type": "address"
        },
        {
          "internalType": "string",
          "name": "",
          "type": "string"
        },
        {
          "internalType": "uint256",
          "name": "",
          "type": "uint256"
        },
        {
          "internalType": "bool",
          "name": "",
          "type": "bool"
        }
      ],
      "stateMutability": "view",
      "type": "function"
    },
    {
      "inputs": [],
      "name": "getVoterLength",
      "outputs": [
        {
          "internalType": "uint256",
          "name": "",
          "type": "uint256"
        }
      ],
      "stateMutability": "view",
      "type": "function"
    },
    {
      "inputs": [],
      "name": "getVoterList",
      "outputs": [
        {
          "internalType": "address[]",
          "name": "",
          "type": "address[]"
        }
      ],
      "stateMutability": "view",
      "type": "function"
    },
    {
      "inputs": [],
      "name": "getWinner",
      "outputs": [
        {
          "internalType": "string",
          "name": "winnerName",
          "type": "string"
        },
        {
          "internalType": "address",
          "name": "winnerAddress",
          "type": "address"
        },
        {
          "internalType": "uint256",
          "name": "winnerId",
          "type": "uint256"
        }
      ],
      "stateMutability": "view",
      "type": "function"
    },
    {
      "inputs": [
        {
          "internalType": "address",
          "name": "_address",
          "type": "address"
        },
        {
          "internalType": "string",
          "name": "_name",
          "type": "string"
        },
        {
          "internalType": "string",
          "name": "_age",
          "type": "string"
        },
        {
          "internalType": "string",
          "name": "_image",
          "type": "string"
        },
        {
          "internalType": "string",
          "name": "_ipfs",
          "type": "string"
        }
      ],
      "name": "setCandidate",
      "outputs": [],
      "stateMutability": "nonpayable",
      "type": "function"
    },
    {
      "inputs": [
        {
          "internalType": "address",
          "name": "_candidateAddress",
          "type": "address"
        },
        {
          "internalType": "uint256",
          "name": "_candidateVoteId",
          "type": "uint256"
        }
      ],
      "name": "vote",
      "outputs": [],
      "stateMutability": "nonpayable",
      "type": "function"
    },
    {
      "inputs": [
        {
          "internalType": "uint256",
          "name": "",
          "type": "uint256"
        }
      ],
      "name": "votedVoters",
      "outputs": [
        {
          "internalType": "address",
          "name": "",
          "type": "address"
        }
      ],
      "stateMutability": "view",
      "type": "function"
    },
    {
      "inputs": [
        {
          "internalType": "address",
          "name": "_address",
          "type": "address"
        },
        {
          "internalType": "string",
          "name": "_name",
          "type": "string"
        },
        {
          "internalType": "string",
          "name": "_image",
          "type": "string"
        },
        {
          "internalType": "string",
          "name": "_ipfs",
          "type": "string"
        }
      ],
      "name": "voterRight",
      "outputs": [],
      "stateMutability": "nonpayable",
      "type": "function"
    },
    {
      "inputs": [
        {
          "internalType": "address",
          "name": "",
          "type": "address"
        }
      ],
      "name": "voters",
      "outputs": [
        {
          "internalType": "uint256",
          "name": "voter_voterId",
          "type": "uint256"
        },
        {
          "internalType": "string",
          "name": "voter_name",
          "type": "string"
        },
        {
          "internalType": "string",
          "name": "voter_image",
          "type": "string"
        },
        {
          "internalType": "address",
          "name": "voter_address",
          "type": "address"
        },
        {
          "internalType": "uint256",
          "name": "voter_allowed",
          "type": "uint256"
        },
        {
          "internalType": "bool",
          "name": "voter_voted",
          "type": "bool"
        },
        {
          "internalType": "uint256",
          "name": "voter_vote",
          "type": "uint256"
        },
        {
          "internalType": "string",
          "name": "voter_ipfs",
          "type": "string"
        }
      ],
      "stateMutability": "view",
      "type": "function"
    },
    {
      "inputs": [
        {
          "internalType": "uint256",
          "name": "",
          "type": "uint256"
        }
      ],
      "name": "votersAddress",
      "outputs": [
        {
          "internalType": "address",
          "name": "",
          "type": "address"
        }
      ],
      "stateMutability": "view",
      "type": "function"
    },
    {
      "inputs": [],
      "name": "votingOrganizer",
      "outputs": [
        {
          "internalType": "address",
          "name": "",
          "type": "address"
        }
      ],
      "stateMutability": "view",
      "type": "function"
    }
  ],
  "bytecode": "0x6080604052348015600f57600080fd5b5033600260006101000a81548173ffffffffffffffffffffffffffffffffffffffff021916908373ffffffffffffffffffffffffffffffffffffffff160217905550612bf7806100606000396000f3fe608060405234801561001057600080fd5b50600436106101215760003560e01c80637831ffb3116100ad578063a738896711610071578063a73889671461035f578063b28d92ae1461037d578063b9be31521461039b578063c91ec712146103b9578063f7522a83146103d557610121565b80637831ffb31461026c5780638ab66a901461029c5780638e7ea5b2146102d25780638fb4cd80146102f2578063a3ec138d1461032857610121565b80633a88251a116100f45780633a88251a146101b457806343242daa146101e45780635cc48aa7146102145780635f74bbde1461023257806370218b851461024e57610121565b80630361419e1461012657806305ad45a41461014257806313182dce146101605780632a466ac71461017e575b600080fd5b610140600480360381019061013b9190611e1a565b6103f3565b005b61014a61065f565b6040516101579190611eee565b60405180910390f35b61016861066c565b6040516101759190611fc7565b60405180910390f35b61019860048036038101906101939190611fe9565b6106fa565b6040516101ab97969594939291906120a4565b60405180910390f35b6101ce60048036038101906101c9919061215b565b610b41565b6040516101db9190612188565b60405180910390f35b6101fe60048036038101906101f9919061215b565b610b80565b60405161020b9190612188565b60405180910390f35b61021c610bbf565b6040516102299190612188565b60405180910390f35b61024c600480360381019061024791906121a3565b610be5565b005b610256610db2565b6040516102639190611fc7565b60405180910390f35b6102866004803603810190610281919061215b565b610e40565b6040516102939190612188565b60405180910390f35b6102b660048036038101906102b19190611fe9565b610e7f565b6040516102c997969594939291906121e3565b60405180910390f35b6102da611101565b6040516102e99392919061226e565b60405180910390f35b61030c60048036038101906103079190611fe9565b611383565b60405161031f97969594939291906122c7565b60405180910390f35b610342600480360381019061033d9190611fe9565b61174b565b60405161035698979695949392919061234b565b60405180910390f35b610367611958565b6040516103749190611eee565b60405180910390f35b610385611964565b6040516103929190611fc7565b60405180910390f35b6103a36119f2565b6040516103b09190611eee565b60405180910390f35b6103d360048036038101906103ce91906123de565b6119fe565b005b6103dd611c31565b6040516103ea9190611eee565b60405180910390f35b3373ffffffffffffffffffffffffffffffffffffffff16600260009054906101000a900473ffffffffffffffffffffffffffffffffffffffff1673ffffffffffffffffffffffffffffffffffffffff1614610483576040517f08c379a000000000000000000000000000000000000000000000000000000000815260040161047a90612515565b60405180910390fd5b61048d6000611c3e565b60006104996000611c54565b90506000600760008773ffffffffffffffffffffffffffffffffffffffff1673ffffffffffffffffffffffffffffffffffffffff168152602001908152602001600020905060008160040154146104ef57600080fd5b600181600401819055508481600101908161050a9190612741565b508381600201908161051c9190612741565b50858160030160006101000a81548173ffffffffffffffffffffffffffffffffffffffff021916908373ffffffffffffffffffffffffffffffffffffffff1602179055508181600001819055506103e8816006018190555060008160050160006101000a81548160ff021916908315150217905550828160070190816105a29190612741565b506006869080600181540180825580915050600190039060005260206000200160009091909190916101000a81548173ffffffffffffffffffffffffffffffffffffffff021916908373ffffffffffffffffffffffffffffffffffffffff1602179055506106106000611c54565b7f0d1b980df89c1a3954567752ee1e92bdf546b205af1cc94b471ae6e71b8f859c868689600160006103e88a60405161064f9796959493929190612889565b60405180910390a2505050505050565b6000600680549050905090565b606060058054806020026020016040519081016040528092919081815260200182805480156106f057602002820191906000526020600020905b8160009054906101000a900473ffffffffffffffffffffffffffffffffffffffff1673ffffffffffffffffffffffffffffffffffffffff16815260200190600101908083116106a6575b5050505050905090565b60608060006060600060606000600460008973ffffffffffffffffffffffffffffffffffffffff1673ffffffffffffffffffffffffffffffffffffffff168152602001908152602001600020600101600460008a73ffffffffffffffffffffffffffffffffffffffff1673ffffffffffffffffffffffffffffffffffffffff168152602001908152602001600020600201600460008b73ffffffffffffffffffffffffffffffffffffffff1673ffffffffffffffffffffffffffffffffffffffff16815260200190815260200160002060000154600460008c73ffffffffffffffffffffffffffffffffffffffff1673ffffffffffffffffffffffffffffffffffffffff168152602001908152602001600020600301600460008d73ffffffffffffffffffffffffffffffffffffffff1673ffffffffffffffffffffffffffffffffffffffff16815260200190815260200160002060040154600460008e73ffffffffffffffffffffffffffffffffffffffff1673ffffffffffffffffffffffffffffffffffffffff168152602001908152602001600020600601600460008f73ffffffffffffffffffffffffffffffffffffffff1673ffffffffffffffffffffffffffffffffffffffff16815260200190815260200160002060050160009054906101000a900473ffffffffffffffffffffffffffffffffffffffff1686805461090490612564565b80601f016020809104026020016040519081016040528092919081815260200182805461093090612564565b801561097d5780601f106109525761010080835404028352916020019161097d565b820191906000526020600020905b81548152906001019060200180831161096057829003601f168201915b5050505050965085805461099090612564565b80601f01602080910402602001604051908101604052809291908181526020018280546109bc90612564565b8015610a095780601f106109de57610100808354040283529160200191610a09565b820191906000526020600020905b8154815290600101906020018083116109ec57829003601f168201915b50505050509550838054610a1c90612564565b80601f0160208091040260200160405190810160405280929190818152602001828054610a4890612564565b8015610a955780601f10610a6a57610100808354040283529160200191610a95565b820191906000526020600020905b815481529060010190602001808311610a7857829003601f168201915b50505050509350818054610aa890612564565b80601f0160208091040260200160405190810160405280929190818152602001828054610ad490612564565b8015610b215780601f10610af657610100808354040283529160200191610b21565b820191906000526020600020905b815481529060010190602001808311610b0457829003601f168201915b505050505091509650965096509650965096509650919395979092949650565b60038181548110610b5157600080fd5b906000526020600020016000915054906101000a900473ffffffffffffffffffffffffffffffffffffffff1681565b60068181548110610b9057600080fd5b906000526020600020016000915054906101000a900473ffffffffffffffffffffffffffffffffffffffff1681565b600260009054906101000a900473ffffffffffffffffffffffffffffffffffffffff1681565b6000600760003373ffffffffffffffffffffffffffffffffffffffff1673ffffffffffffffffffffffffffffffffffffffff1681526020019081526020016000209050600015158160050160009054906101000a900460ff16151514610c80576040517f08c379a0000000000000000000000000000000000000000000000000000000008152600401610c7790612959565b60405180910390fd5b6000816004015403610cc7576040517f08c379a0000000000000000000000000000000000000000000000000000000008152600401610cbe906129c5565b60405180910390fd5b60018160050160006101000a81548160ff0219169083151502179055508181600601819055506005339080600181540180825580915050600190039060005260206000200160009091909190916101000a81548173ffffffffffffffffffffffffffffffffffffffff021916908373ffffffffffffffffffffffffffffffffffffffff1602179055508060040154600460008573ffffffffffffffffffffffffffffffffffffffff1673ffffffffffffffffffffffffffffffffffffffff1681526020019081526020016000206004016000828254610da69190612a14565b92505081905550505050565b60606003805480602002602001604051908101604052809291908181526020018280548015610e3657602002820191906000526020600020905b8160009054906101000a900473ffffffffffffffffffffffffffffffffffffffff1673ffffffffffffffffffffffffffffffffffffffff1681526020019060010190808311610dec575b5050505050905090565b60058181548110610e5057600080fd5b906000526020600020016000915054906101000a900473ffffffffffffffffffffffffffffffffffffffff1681565b6004602052806000526040600020600091509050806000015490806001018054610ea890612564565b80601f0160208091040260200160405190810160405280929190818152602001828054610ed490612564565b8015610f215780601f10610ef657610100808354040283529160200191610f21565b820191906000526020600020905b815481529060010190602001808311610f0457829003601f168201915b505050505090806002018054610f3690612564565b80601f0160208091040260200160405190810160405280929190818152602001828054610f6290612564565b8015610faf5780601f10610f8457610100808354040283529160200191610faf565b820191906000526020600020905b815481529060010190602001808311610f9257829003601f168201915b505050505090806003018054610fc490612564565b80601f0160208091040260200160405190810160405280929190818152602001828054610ff090612564565b801561103d5780601f106110125761010080835404028352916020019161103d565b820191906000526020600020905b81548152906001019060200180831161102057829003601f168201915b5050505050908060040154908060050160009054906101000a900473ffffffffffffffffffffffffffffffffffffffff169080600601805461107e90612564565b80601f01602080910402602001604051908101604052809291908181526020018280546110aa90612564565b80156110f75780601f106110cc576101008083540402835291602001916110f7565b820191906000526020600020905b8154815290600101906020018083116110da57829003601f168201915b5050505050905087565b60606000806000805b60038054905081101561137c578160046000600384815481106111305761112f612a48565b5b9060005260206000200160009054906101000a900473ffffffffffffffffffffffffffffffffffffffff1673ffffffffffffffffffffffffffffffffffffffff1673ffffffffffffffffffffffffffffffffffffffff16815260200190815260200160002060040154111561136f5760046000600383815481106111b7576111b6612a48565b5b9060005260206000200160009054906101000a900473ffffffffffffffffffffffffffffffffffffffff1673ffffffffffffffffffffffffffffffffffffffff1673ffffffffffffffffffffffffffffffffffffffff168152602001908152602001600020600201805461122a90612564565b80601f016020809104026020016040519081016040528092919081815260200182805461125690612564565b80156112a35780601f10611278576101008083540402835291602001916112a3565b820191906000526020600020905b81548152906001019060200180831161128657829003601f168201915b50505050509450600381815481106112be576112bd612a48565b5b9060005260206000200160009054906101000a900473ffffffffffffffffffffffffffffffffffffffff169350600460006003838154811061130357611302612a48565b5b9060005260206000200160009054906101000a900473ffffffffffffffffffffffffffffffffffffffff1673ffffffffffffffffffffffffffffffffffffffff1673ffffffffffffffffffffffffffffffffffffffff1681526020019081526020016000206000015492505b808060010191505061110a565b5050909192565b600060608060006060600080600760008973ffffffffffffffffffffffffffffffffffffffff1673ffffffffffffffffffffffffffffffffffffffff16815260200190815260200160002060000154600760008a73ffffffffffffffffffffffffffffffffffffffff1673ffffffffffffffffffffffffffffffffffffffff168152602001908152602001600020600101600760008b73ffffffffffffffffffffffffffffffffffffffff1673ffffffffffffffffffffffffffffffffffffffff168152602001908152602001600020600201600760008c73ffffffffffffffffffffffffffffffffffffffff1673ffffffffffffffffffffffffffffffffffffffff16815260200190815260200160002060030160009054906101000a900473ffffffffffffffffffffffffffffffffffffffff16600760008d73ffffffffffffffffffffffffffffffffffffffff1673ffffffffffffffffffffffffffffffffffffffff168152602001908152602001600020600701600760008e73ffffffffffffffffffffffffffffffffffffffff1673ffffffffffffffffffffffffffffffffffffffff16815260200190815260200160002060040154600760008f73ffffffffffffffffffffffffffffffffffffffff1673ffffffffffffffffffffffffffffffffffffffff16815260200190815260200160002060050160009054906101000a900460ff1685805461159a90612564565b80601f01602080910402602001604051908101604052809291908181526020018280546115c690612564565b80156116135780601f106115e857610100808354040283529160200191611613565b820191906000526020600020905b8154815290600101906020018083116115f657829003601f168201915b5050505050955084805461162690612564565b80601f016020809104026020016040519081016040528092919081815260200182805461165290612564565b801561169f5780601f106116745761010080835404028352916020019161169f565b820191906000526020600020905b81548152906001019060200180831161168257829003601f168201915b505050505094508280546116b290612564565b80601f01602080910402602001604051908101604052809291908181526020018280546116de90612564565b801561172b5780601f106117005761010080835404028352916020019161172b565b820191906000526020600020905b81548152906001019060200180831161170e57829003601f168201915b505050505092509650965096509650965096509650919395979092949650565b600760205280600052604060002060009150905080600001549080600101805461177490612564565b80601f01602080910402602001604051908101604052809291908181526020018280546117a090612564565b80156117ed5780601f106117c2576101008083540402835291602001916117ed565b820191906000526020600020905b8154815290600101906020018083116117d057829003601f168201915b50505050509080600201805461180290612564565b80601f016020809104026020016040519081016040528092919081815260200182805461182e90612564565b801561187b5780601f106118505761010080835404028352916020019161187b565b820191906000526020600020905b81548152906001019060200180831161185e57829003601f168201915b5050505050908060030160009054906101000a900473ffffffffffffffffffffffffffffffffffffffff16908060040154908060050160009054906101000a900460ff16908060060154908060070180546118d590612564565b80601f016020809104026020016040519081016040528092919081815260200182805461190190612564565b801561194e5780601f106119235761010080835404028352916020019161194e565b820191906000526020600020905b81548152906001019060200180831161193157829003601f168201915b5050505050905088565b60018060000154905081565b606060068054806020026020016040519081016040528092919081815260200182805480156119e857602002820191906000526020600020905b8160009054906101000a900473ffffffffffffffffffffffffffffffffffffffff1673ffffffffffffffffffffffffffffffffffffffff168152602001906001019080831161199e575b5050505050905090565b60008060000154905081565b3373ffffffffffffffffffffffffffffffffffffffff16600260009054906101000a900473ffffffffffffffffffffffffffffffffffffffff1673ffffffffffffffffffffffffffffffffffffffff1614611a8e576040517f08c379a0000000000000000000000000000000000000000000000000000000008152600401611a8590612ae9565b60405180910390fd5b611a986001611c3e565b6003859080600181540180825580915050600190039060005260206000200160009091909190916101000a81548173ffffffffffffffffffffffffffffffffffffffff021916908373ffffffffffffffffffffffffffffffffffffffff1602179055506000600460008773ffffffffffffffffffffffffffffffffffffffff1673ffffffffffffffffffffffffffffffffffffffff1681526020019081526020016000209050600160000154816000018190555083816001019081611b5d9190612741565b5084816002019081611b6f9190612741565b5082816003019081611b819190612741565b5060008160040181905550858160050160006101000a81548173ffffffffffffffffffffffffffffffffffffffff021916908373ffffffffffffffffffffffffffffffffffffffff16021790555081816006019081611be09190612741565b506001600001547fd297f12b256bb8485a6013fb5e302017018123e99a0ebb20756c09e1707b4b9085878660008b88604051611c2196959493929190612b44565b60405180910390a2505050505050565b6000600380549050905090565b6001816000016000828254019250508190555050565b600081600001549050919050565b6000604051905090565b600080fd5b600080fd5b600073ffffffffffffffffffffffffffffffffffffffff82169050919050565b6000611ca182611c76565b9050919050565b611cb181611c96565b8114611cbc57600080fd5b50565b600081359050611cce81611ca8565b92915050565b600080fd5b600080fd5b6000601f19601f8301169050919050565b7f4e487b7100000000000000000000000000000000000000000000000000000000600052604160045260246000fd5b611d2782611cde565b810181811067ffffffffffffffff82111715611d4657611d45611cef565b5b80604052505050565b6000611d59611c62565b9050611d658282611d1e565b919050565b600067ffffffffffffffff821115611d8557611d84611cef565b5b611d8e82611cde565b9050602081019050919050565b82818337600083830152505050565b6000611dbd611db884611d6a565b611d4f565b905082815260208101848484011115611dd957611dd8611cd9565b5b611de4848285611d9b565b509392505050565b600082601f830112611e0157611e00611cd4565b5b8135611e11848260208601611daa565b91505092915050565b60008060008060808587031215611e3457611e33611c6c565b5b6000611e4287828801611cbf565b945050602085013567ffffffffffffffff811115611e6357611e62611c71565b5b611e6f87828801611dec565b935050604085013567ffffffffffffffff811115611e9057611e8f611c71565b5b611e9c87828801611dec565b925050606085013567ffffffffffffffff811115611ebd57611ebc611c71565b5b611ec987828801611dec565b91505092959194509250565b6000819050919050565b611ee881611ed5565b82525050565b6000602082019050611f036000830184611edf565b92915050565b600081519050919050565b600082825260208201905092915050565b6000819050602082019050919050565b611f3e81611c96565b82525050565b6000611f508383611f35565b60208301905092915050565b6000602082019050919050565b6000611f7482611f09565b611f7e8185611f14565b9350611f8983611f25565b8060005b83811015611fba578151611fa18882611f44565b9750611fac83611f5c565b925050600181019050611f8d565b5085935050505092915050565b60006020820190508181036000830152611fe18184611f69565b905092915050565b600060208284031215611fff57611ffe611c6c565b5b600061200d84828501611cbf565b91505092915050565b600081519050919050565b600082825260208201905092915050565b60005b83811015612050578082015181840152602081019050612035565b60008484015250505050565b600061206782612016565b6120718185612021565b9350612081818560208601612032565b61208a81611cde565b840191505092915050565b61209e81611c96565b82525050565b600060e08201905081810360008301526120be818a61205c565b905081810360208301526120d2818961205c565b90506120e16040830188611edf565b81810360608301526120f3818761205c565b90506121026080830186611edf565b81810360a0830152612114818561205c565b905061212360c0830184612095565b98975050505050505050565b61213881611ed5565b811461214357600080fd5b50565b6000813590506121558161212f565b92915050565b60006020828403121561217157612170611c6c565b5b600061217f84828501612146565b91505092915050565b600060208201905061219d6000830184612095565b92915050565b600080604083850312156121ba576121b9611c6c565b5b60006121c885828601611cbf565b92505060206121d985828601612146565b9150509250929050565b600060e0820190506121f8600083018a611edf565b818103602083015261220a818961205c565b9050818103604083015261221e818861205c565b90508181036060830152612232818761205c565b90506122416080830186611edf565b61224e60a0830185612095565b81810360c0830152612260818461205c565b905098975050505050505050565b60006060820190508181036000830152612288818661205c565b90506122976020830185612095565b6122a46040830184611edf565b949350505050565b60008115159050919050565b6122c1816122ac565b82525050565b600060e0820190506122dc600083018a611edf565b81810360208301526122ee818961205c565b90508181036040830152612302818861205c565b90506123116060830187612095565b8181036080830152612323818661205c565b905061233260a0830185611edf565b61233f60c08301846122b8565b98975050505050505050565b600061010082019050612361600083018b611edf565b8181036020830152612373818a61205c565b90508181036040830152612387818961205c565b90506123966060830188612095565b6123a36080830187611edf565b6123b060a08301866122b8565b6123bd60c0830185611edf565b81810360e08301526123cf818461205c565b90509998505050505050505050565b600080600080600060a086880312156123fa576123f9611c6c565b5b600061240888828901611cbf565b955050602086013567ffffffffffffffff81111561242957612428611c71565b5b61243588828901611dec565b945050604086013567ffffffffffffffff81111561245657612455611c71565b5b61246288828901611dec565b935050606086013567ffffffffffffffff81111561248357612482611c71565b5b61248f88828901611dec565b925050608086013567ffffffffffffffff8111156124b0576124af611c71565b5b6124bc88828901611dec565b9150509295509295909350565b7f6f6e6c79206f7267616e697a65722063616e2061646420766f74657200000000600082015250565b60006124ff601c83612021565b915061250a826124c9565b602082019050919050565b6000602082019050818103600083015261252e816124f2565b9050919050565b7f4e487b7100000000000000000000000000000000000000000000000000000000600052602260045260246000fd5b6000600282049050600182168061257c57607f821691505b60208210810361258f5761258e612535565b5b50919050565b60008190508160005260206000209050919050565b60006020601f8301049050919050565b600082821b905092915050565b6000600883026125f77fffffffffffffffffffffffffffffffffffffffffffffffffffffffffffffffff826125ba565b61260186836125ba565b95508019841693508086168417925050509392505050565b6000819050919050565b600061263e61263961263484611ed5565b612619565b611ed5565b9050919050565b6000819050919050565b61265883612623565b61266c61266482612645565b8484546125c7565b825550505050565b600090565b612681612674565b61268c81848461264f565b505050565b5b818110156126b0576126a5600082612679565b600181019050612692565b5050565b601f8211156126f5576126c681612595565b6126cf846125aa565b810160208510156126de578190505b6126f26126ea856125aa565b830182612691565b50505b505050565b600082821c905092915050565b6000612718600019846008026126fa565b1980831691505092915050565b60006127318383612707565b9150826002028217905092915050565b61274a82612016565b67ffffffffffffffff81111561276357612762611cef565b5b61276d8254612564565b6127788282856126b4565b600060209050601f8311600181146127ab5760008415612799578287015190505b6127a38582612725565b86555061280b565b601f1984166127b986612595565b60005b828110156127e1578489015182556001820191506020850194506020810190506127bc565b868310156127fe57848901516127fa601f891682612707565b8355505b6001600288020188555050505b505050505050565b6000819050919050565b600061283861283361282e84612813565b612619565b611ed5565b9050919050565b6128488161281d565b82525050565b6000819050919050565b600061287361286e6128698461284e565b612619565b611ed5565b9050919050565b61288381612858565b82525050565b600060e08201905081810360008301526128a3818a61205c565b905081810360208301526128b7818961205c565b90506128c66040830188612095565b6128d3606083018761283f565b6128e060808301866122b8565b6128ed60a083018561287a565b81810360c08301526128ff818461205c565b905098975050505050505050565b7f596f75206861766520616c726561647920766f74656400000000000000000000600082015250565b6000612943601683612021565b915061294e8261290d565b602082019050919050565b6000602082019050818103600083015261297281612936565b9050919050565b7f596f7520617265206e6f7420616c6c6f77656420746f20766f74650000000000600082015250565b60006129af601b83612021565b91506129ba82612979565b602082019050919050565b600060208201905081810360008301526129de816129a2565b9050919050565b7f4e487b7100000000000000000000000000000000000000000000000000000000600052601160045260246000fd5b6000612a1f82611ed5565b9150612a2a83611ed5565b9250828201905080821115612a4257612a416129e5565b5b92915050565b7f4e487b7100000000000000000000000000000000000000000000000000000000600052603260045260246000fd5b7f4f6e6c79206f7267616e697a65722063616e207365742063616e64696461746560008201527f7300000000000000000000000000000000000000000000000000000000000000602082015250565b6000612ad3602183612021565b9150612ade82612a77565b604082019050919050565b60006020820190508181036000830152612b0281612ac6565b9050919050565b6000819050919050565b6000612b2e612b29612b2484612b09565b612619565b611ed5565b9050919050565b612b3e81612b13565b82525050565b600060c0820190508181036000830152612b5e818961205c565b90508181036020830152612b72818861205c565b90508181036040830152612b86818761205c565b9050612b956060830186612b35565b612ba26080830185612095565b81810360a0830152612bb4818461205c565b905097965050505050505056fea26469706673582212201623b3bd24fa35f5c0a560741ac78da5b9e1c05311ea8772cdce3b776b31cf1664736f6c634300081c0033",
  "linkReferences": {},
  "deployedLinkReferences": {}
}